:020000040800F2
:1000000000000220911D0C08151E0C08DD190708C0
:10001000151E0C08151E0C08151E0C08000000000B
:10002000000000000000000000000000151E0C0889
:10003000151E0C0800000000151E0C08454E050892
:10004000151E0C08151E0C08151E0C08151E0C0894
:10005000151E0C08151E0C08912505089525050888
:10006000992505089D250508A1250508394004089E
:100070004D400408614004087540040889400408A4
:100080009D400408B1400408151E0C08151E0C08FC
:10009000151E0C08151E0C08151E0C08A5250508B4
:1000A000151E0C08151E0C08151E0C08D94A04084C
:1000B000ED4A0408014B0408154B04086933040891
:1000C0005D3304089D33040891330408151E0C08A1
:1000D000151E0C08AD540408B9540408C55404088E
:1000E000A9250508151E0C0800000000514B040846
:1000F000A14B0408C94B04083D4B0408C540040843
:10010000151E0C081D650408294B0408151E0C0853
:10011000D1540408151E0C08151E0C08F599040886
:10012000D9400408ED4004080141040815410408C1
:1001300029410408151E0C08151E0C08151E0C0874
:1001400000000000000000000000000000000000AF
:100150003D4104085141040865410408DD54040888
:10016000D1330408C5330408151E0C08151E0C08ED
:10017000151E0C08151E0C08151E0C0800000000AA
:10018000151E0C08151E0C08E9540408F554040843
:10019000151E0C08151E0C08151E0C08151E0C0843
:1001A000151E0C08151E0C08151E0C08151E0C0833
:1001B000151E0C08151E0C08151E0C08151E0C0823
:1001C000151E0C08151E0C08151E0C08151E0C0813
:1001D000151E0C0805860408151E0C08151E0C08B3
:1001E000151E0C08151E0C08151E0C08151E0C08F3
:1001F000151E0C08151E0C08151E0C08151E0C08E3
:10020000151E0C08151E0C08151E0C08151E0C08D2
:10021000654B0408794B04088D4B0408151E0C0827
:10022000151E0C08151E0C08151E0C0800000000F9
:1002300021650408151E0C0800000000151E0C089E
:10024000151E0C08151E0C08151E0C08151E0C0892
:10025000151E0C08151E0C08151E0C08151E0C0882
:10026000151E0C08151E0C08151E0C08151E0C0872
:10027000151E0C08151E0C08151E0C0800000000A9
:10028000151E0C0800000000151E0C0800000000E0
:0802900000000000151E0C081F
:08029800F80D0C00010000004C
:1002A000E8AF01240201000005003F0008B001246E
:1002B0000207000005003F0028B0012402020001EF
:1002C00005035B0048B001240207000206033D005D
:1002D00068B00124010D00000001760088B00124FF
:1002E0000111000000017600A8B00124010E0100F8
:1002F00000017700C8B0012401130000000176005E
:10030000E8B001240115000000001E0008B101241E
:10031000011B000000000D0028B10124011C000099
:1003200000002C0048B101240116000000000C0060
:1003300068B101240117000000000C0088B10124FD
:10034000011D000000000E00A8B10124011E0000E4
:1003500000001E00C8B101240118000000000C00BC
:10036000E8B101240119000000000E0008B20124C8
:10037000011A000000000C0028B20124021F000036
:100380000002520048B201240120000000000C00CD
:1003900068B201240121000000000C0088B2012491
:1003A000012A010000011800A8B201240122000066
:1003B00000014800C8B201240123000000014900E7
:1003C000E8B201240124000000014A0008B301241E
:1003D0000125000000014B0028B301240126000084
:1003E00000014C0048B301240127000000014D002A
:1003F00068B301240128000000014E0088B30124E5
:100400000129000000014F00A8B30124012D0000C4
:1004100000002900C8B30124012E010000002900BA
:10042000E8B30124012F01000000700008B401248A
:10043000013100000000310028B401240130010026
:100440000000520048B401240132010000012800DC
:1004500068B40124013301000001280088B401249C
:10046000022B050000012C00A8B401240136000075
:1004700000003C00C8B40124013900000000200045
:020000040804EE
:10000000836B5A6D12F0500F5A6D1AD1196842F471
:1000100000725A650A6812F0080FCA6816D012F406
:10002000406F15D1CA68920412D45A6D22F48072BE
:100030005A655A6DD1040BD45A6D42F001025A65CB
:100040007047D20604D4DB6CDB6C18479007ECD009
:10005000704700BF704700BF836B5A6D42F040028B
:100060005A659A6D42F004029A65704702685549D4
:1000700038B5554B554D564CAA4218BF9A420CBF45
:10008000012300238A4208BF43F001033031A2421A
:1000900008BF43F0010330348A4208BF43F0010334
:1000A0003031A24208BF43F0010330348A4208BF16
:1000B00043F0010301F55C71A24208BF43F0010364
:1000C00004F55C748A4208BF43F001033031A24258
:1000D00008BF43F0010330348A4208BF43F00103F4
:1000E0003031A24208BF43F0010330348A4208BFD6
:1000F00043F001033031A24208BF43F001038A42BA
:1001000008BF43F0010313B9324B9A4208D10423CC
:1001100080F83530136823F001031360002038BDE8
:100120002D4B2E4D1168AA4218BF9A422C4C21F03B
:100130000E0105F13C050CBF012300231160A24212
:1001400008BF43F0010311682834AA4208BF43F0F6
:10015000010321F00101A24208BF43F0010314345E
:100160001160A24208BF43F001031E498A4208BF42
:1001700043F0010313B91C4B9A4217D10123856D3B
:10018000D0E91714226801F01F0122F480728B401D
:1001900022606B60C36ED0E91921516033B11A68D7
:1001A000D0E91C1422F480721A604C6001210022F4
:1001B000036D80F8351080F83420002BAED09847BE
:1001C000ACE700BF4000024010000240280002409F
:1001D00058000240B80402401C5402580854025807
:1001E0003054025880540258945402580168002236
:1001F0000B6880F842205A0410B40ED50B6823F423
:1002000080430B6090F84130292B10D090F841309A
:100210002A2B24D05DF8044B70471B04F2D50B68E1
:1002200023F400430B6090F84130292BEED12822B3
:10023000212380F841200022036390F841300C68AC
:1002400003F02803282B14BF6FF0F2036FF0420372
:1002500023405DF8044B0B6080F840207047282253
:10026000222380F841200022036390F841300C687B
:1002700003F02803282B14BF6FF0F4036FF044033E
:1002800023405DF8044B0B6080F84020704700BFAE
:100290000023202210B4174C4363C462036380F828
:1002A000412080F842304B07026811D5526A436AF8
:1002B0001A70436A028D013343624AB1438D013A99
:1002C000013B02859BB24385436C43F004034364C6
:1002D0000368102490F84120002190F841201A680A
:1002E00022F0FE021A60DC615DF8044B80F84010D9
:1002F000704700BF0000FFFF70B5574B002590F816
:100300004120044680F84250283AC3624585436C38
:10031000022A41EA0301036841642FD890F8411092
:1003200090F84120282001F0280102F02802282915
:1003300014BFF6214621282A1A680CBFC9436FF062
:10034000F6010A4045491A6084F84100A06B226B0F
:10035000616318B1112A42D0212A40D0E06B18B154
:10036000122A51D0222A4FD094F84130602B4FF0FE
:1003700000032DD0236384F8403070BD90F84120F5
:1003800090F841201A6822F0FE021A609A699207DA
:1003900000D59D629A69D60703D49A6942F001029A
:1003A0009A6194F84120602A10D0202284F84120DC
:1003B0009A6995060AD59A69D00605D51022DA61A0
:1003C000626C42F0040262642022DA610021BDE71F
:1003D000202284F8403084F84120236370BD1A68DD
:1003E00051042CD490F83530012BBDD000221C4B89
:1003F000036584F8402090F83520022A24D080221A
:100400004265BDE8704018471A68120403D51A689F
:1004100022F400421A6090F83530012BA4D000225B
:100420000F4B036584F8402090F83520022AE6D16E
:10043000FFF71CFE0028A0D0E06B036DE1E71A680F
:1004400022F480421A60CDE7FFF710FE002894D016
:10045000A06B036DD5E700BF0000FFFFDD040408BB
:100460002D08040803689A69196810B4D40528D5C2
:100470000C0606D4416C11F00B0F1FD15DF8044B34
:100480007047416C4FF4807441F0010141645105A3
:10049000DC6120D5416C4FF48064920541F0080185
:1004A0004164DC61E6D5426C4FF4007142F0020217
:1004B0004264D961416C11F00B0FDFD05DF8044B41
:1004C0001AE7540502D50906E4D4D3E79405D1D53B
:1004D0000906E8D4CEE79205E5D4CBE7F8B590F865
:1004E00040300D46C16A012B00F008810123AE06A1
:1004F000044680F8403001D5900656D4EB0619D555
:10050000D70617D5638D9BB2002B40F0F98094F885
:100510004130B1F1007FDBB240F0D580282B40F0B4
:10052000D28029462046FFF7B3FE0023184684F800
:100530004030F8BD68071AD42F0701D516074AD4F2
:10054000A807F2D59307F0D5638D9BB2002B00F07E
:10055000FA80616A236811F8010B228D9862638D1D
:10056000013A6162013B22859BB26385DDE7530757
:10057000E2D5638D9BB26BB12268636A526A1A70CE
:10058000638D606A228D013B0130013A9BB260624B
:1005900022856385638D9BB2002BC6D111F5803F08
:1005A000C3D02046FFF722FEBFE72368202118684A
:1005B000E66A94F84120D961213A092A1ED8DFE879
:1005C00012F0C70015001D001D001D001D001D00BC
:1005D000F000C700150094F84130226803F02803AA
:1005E000282B00F0C5800823D3619EE794F84120B2
:1005F0001A6822F0FC021A60222222635A68894992
:1006000042F400425A605A680A405A609A69910757
:1006100001D500229A629A69D20703D49A6942F0FE
:1006200001029A6147047BD51A6822F480421A605D
:10063000A26B1AB111684A6892B262856A070BD53B
:100640005A6A25F00405636A1A70636A01336362AB
:10065000238D002B40F08580638D9BB21BB1636CB2
:1006600043F004036364EB061AD5C70618D5638DFF
:100670009BB2002B40F0AA8094F84130282B03D184
:10068000B6F1007F00F0C98094F8413016F5803F44
:100690002268DBB202D0292B00F0AD801023D36199
:1006A000002384F84230666C6363002E40F084803F
:1006B000E36A5D4DAB423DD194F84130202384F88C
:1006C0004130266331E794F841202368292A4FF00E
:1006D0001002DA617FF429AF11F5803F3FF425AFB6
:1006E0009A69960701D500229A629A69D5073FF563
:1006F00058AF9A6942F001029A6152E70220F8BDB0
:1007000023681022DA61636C43F00403636431F000
:1007100080737FF40AAF616C2046FFF7EDFD04E7BC
:1007200001048BD51A6822F400421A60E26B002A99
:1007300080D183E72046FFF759FD2023E56284F846
:1007400041302663F1E631F080737FF4EEAE28E7A6
:1007500094F841201A6822F0FA021A6021222263DA
:100760004CE7013B2385638D013B9BB2638573E7B7
:10077000E1689369022990699368D56836D1C3F31B
:10078000C21383EA104313F006032FD1A16C013189
:10079000A164A16C02297FF4C8AE0821A364D161D1
:1007A000C3E694F8412094F841201A6822F0FE0232
:1007B0001A600022226321E7616C2046FFF79CFD4E
:1007C00094F84130282B7FF4B0AEAAE623681022BB
:1007D000DA61636C43F00403636436F080737FF482
:1007E0005FAF616C2046FFF787FD59E7136823F080
:1007F000B803136099E61023D3619369980701D574
:10080000002393629369D90703D4936943F00103EA
:1008100093612046FFF7EAFC42E729462046FFF7AE
:1008200037FD3DE700E800FE0000FFFF836B9A6B99
:100830000AB100211165DA6B0AB10021116593F844
:100840004120602A05D000221A63002283F840204C
:1008500070470022202183F841101A63002283F898
:1008600040207047016870B4CC072DD5914A1369B8
:10087000926A03F03803102B00F0E180182B00F08F
:10088000D9804368B3F5803F00F00581002B00F06C
:100890005A81B3F5A02F874B1A6800F0678222F4C3
:1008A00080321A601A6822F480221A60824B41F268
:1008B000883C804C1D6804E01A68521B624500F2B7
:1008C0003F8122689603F7D58A0768D4CD0631D5D3
:1008D000784A1369926A03F03803082B00F0C0804D
:1008E000182B00F0B880C369724C002B00F05F81B8
:1008F0002268714B42F0800222601D6804E01A6891
:10090000521B022A00F21C812268D205F7D56B4BDC
:10091000026A1D6841F20303B3EB154FC0F0448235
:100920006368202A23F0F8430CBF43F0804343EA76
:10093000826363600D0713D543695E4C002B00F0A2
:100940001881626F5C4B42F0010262671D6804E02F
:100950001A68521B022A00F2F380626F9207F7D5E1
:100960008C0613D58369534C002B00F0118122684B
:10097000514B42F4805222601D6804E01A68521BF9
:10098000022A00F2DD8022689204F7D5490700F1BF
:100990008880436A002B40F0BC80002059E0454A23
:1009A0001369926A13F038032BD1424AC368126864
:1009B000520701D5002B4BD03E4C226822F0190281
:1009C0001A433D4B22601D6804E01A68521B022A3C
:1009D00000F2B68022685607F7D5384B02691D68C9
:1009E00041F20303B3EB154F6368C0F0028123F4B7
:1009F0007C33402A0CBF43F4003343EA0233636084
:100A000064E7182B00F0F180C3682A4C002B00F03B
:100A1000DD80226822F019021A43274B22601D68EC
:100A200004E01A68521B022A00F28A8022685207E8
:100A3000F7D5D2E702F00302022A7FF422AF1D4B62
:100A40001B689B037FF540AF4368002B7FF43CAFEE
:100A5000012070BC704702F00302012A7FF443AF0B
:100A6000144B1B68DC0502D5C369802BF0D1134CF5
:100A700041F20303026A2468B3EB144FC0F0BF8055
:100A8000202A00F09E810B4C636823F0F84343EA70
:100A9000826363604EE7074A136843F48033136050
:100AA00004E70749044B0A6842F480720A601C6834
:100AB0000CE000BF00440258002D00240010005C30
:100AC000004802581A68121B642A39D80A68D505EA
:100AD000F8D58268012A00F06E81002A00F04E816C
:100AE000052A9F4A116F00F0748121F001011167FE
:100AF000116F21F0040111671D6841F28834984993
:100B000003E01A68521BA2421AD80A6F9207F8D55E
:100B10003FE793490A6902F03802182A00F0D580AD
:100B20000A68022B8F4B22F080720A606FD018681F
:100B30000A6892017FF531AF1A68121A022AF7D9B2
:100B4000032070BC7047864C41F28835854B226883
:100B500022F480322260226822F4802222601E6801
:100B600003E01A68921BAA42EAD822689203F8D4DA
:100B7000AAE6626F7B4B22F0010262671D6803E008
:100B80001A68521B022ADBD8626F9607F8D4E7E690
:100B90002268744B22F4805222601D6803E01A68B8
:100BA000521B022ACCD822689604F8D4EEE62268BA
:100BB0006C4B22F0800222601D6803E01A68521B11
:100BC000022ABDD82268D605F8D4B3E62268654B60
:100BD00022F0010222601D6803E01A68521B022AFB
:100BE000AED822685607F8D470E694077FF40CAFAD
:100BF000DBE623F0FE4343EA0263636066E6584C9B
:100C0000E36823F07C5343EA0263E36092E61C68E6
:100C100003E01A68121B022A92D80A689501F8D4D8
:100C20008C6A514A2240846A2243C46A42EA04120E
:100C30008A62D0E90D24013A013C5202240492B2A6
:100C400004F4FE042243046B013CC4F30804224371
:100C5000C46B013C240604F0FE4422430A63CA6AC2
:100C600022F00102CA624A6B846C6FF3CF0242EA3F
:100C7000C4024A63CA6A046C22F00C022243384C54
:100C8000CA62CA6A406C22F002020243CA62CA6A9D
:100C900042F48032CA62CA6A42F40032CA62CA6A44
:100CA00042F48022CA62CA6A42F00102CA620A6839
:100CB00042F080720A601968226890013FF56DAEBB
:100CC0001A68521A022AF7D93AE7012B8A6A0D6B81
:100CD0003FF4BEAE02F00303846AA3427FF4B8AED1
:100CE000C2F30512C36A9A427FF4B2AE036BC5F336
:100CF0000802013B9A427FF4ABAE436BC5F3462238
:100D0000013B9A427FF4A4AE836BC5F30642013BDC
:100D10009A427FF49DAEC36BC5F30665013B9D42CD
:100D20007FF496AE4B6B816CC3F3CC0399423FF4D6
:100D300034AE0B480B4BC26A22F00102C2621A6841
:100D400018688242FCD0064A536B6FF3CF0343EA24
:100D5000C1035363D36A43F00103D3621DE600BFAE
:100D600000440258002D00240CFCFFFF42F48022B6
:100D70001A601A6842F480321A6097E5194941F204
:100D800088350A6F22F001020A670A6F22F0040216
:100D90000A671C6804E01A68121BAA423FF6D0AE2C
:100DA0000A6F9607F7D4F4E5E36823F07C5343EA2F
:100DB0000263E360BEE50B490A6F42F001020A6775
:100DC0009AE6084A536823F0F84343F0804353609F
:100DD000B0E541F004011167116F41F001011167A5
:100DE0008AE600BF00440258334B30B4996A9C6ACB
:100DF000DD6A14F47C7F5A6BC4F3051036D0C2F35D
:100E0000CC0205F0010501F0030107EE900A05FB95
:100E100002F20129B8EEE77A06EE902AFAEEE96AC4
:100E200002D0022942D019B3DFED247A87EE876A17
:100E30001B6BC3F3080307EE903AF7EE005AF8EE87
:100E4000E77A77EEA67A77EEA57A67EE867A1A4B7E
:100E50001B6BC3F34623013307EE103AF8EEC76A63
:100E600087EEA67AFCEEC77A17EE900A30BC704780
:100E70001A6892061DD51968F7EE005A104A1B6BC6
:100E8000C1F3C101C3F30803CA4007EE903A06EE6E
:100E9000102AF8EEE77AB8EEC66A77EEA66AC6EED2
:100EA000077A36EEA57A67EE877AD0E7DFED057A26
:100EB000BCE7DFED057AB9E7004402580024744A24
:100EC0000090D0030024F44A0024744C836A1A076B
:100ED00010B406D50168846B4A6822F400422243AC
:100EE0004A60DC0706D50168C46A4A6822F4003209
:100EF00022434A60990706D50168046B4A6822F4C8
:100F0000803222434A605A0706D50168446B4A681A
:100F100022F4802222434A60DC0606D50168C46BB5
:100F20008A6822F4805222438A60990606D50168B5
:100F3000046C8A6822F4005222438A605A060AD559
:100F40000168446C4A68B4F5801F22F4801242EABA
:100F500004024A600BD01B0606D50268C16C5368B8
:100F600023F400230B4353605DF8044B70474A6839
:100F7000846C22F4C00222434A60ECE70022836BB7
:100F8000A3F85E20704700BF124B41F2883C124A22
:100F900001461B68A2FB03235B0A0CFB03F33BB176
:100FA0004A6B12F0450F01D0920404D5013BF7D1F2
:100FB0004FF0004070474B6B5B0707D4486B10F055
:100FC000010014BF0123054B8B63704704231846AF
:100FD0008B63704700000024D34D6210C5002000D1
:100FE000036942681F2B70B430D9A3F1200520217A
:100FF0005468A940214227D08169087C022835D055
:1010000048681F2BC9681B4D4E680169C1F3032452
:10101000194951F8244015F804C0056856F80C40E9
:1010200024F0010446F80C40407901EB4001088CA3
:10103000E96800F4F05021EA0001E96010D9A3F159
:10104000200120238B40D36070BC7047202114689E
:1010500099402142F8D08169087C0228D0D105E06E
:10106000202101FA03F370BC9360704700200874DC
:10107000C6E700BF786D0C08086C0C08D0E90723A0
:101080009A423CBFC1685218D01A7047D0E9092370
:1010900000699A4238BF12180138D31AC01A704733
:1010A000D0E90902101AB0FA80F04009704700BF79
:1010B000016A034640694A1C405CD9688A4228BFDD
:1010C00000221A62704700BF436A826910B4D1548B
:1010D000436A416B046901330A68A34228BF0023B5
:1010E0005DF8044B42F0800243620A60704700BF23
:1010F000436BD86910F0100002D0102201201A6250
:10110000704700BF024B01F001011971704700BF29
:1011100000000024704700BF704700BF704700BF49
:1011200001207047034B58689B68C01AC0F30B003E
:10113000704700BF002D0024074B93F8A822012A16
:1011400001D10020704793F8A832032BF9D1034B4B
:101150001879C0B2704700BF002D002400000024A1
:10116000012380F849307047EFF31182702383F335
:1011700012880849D2B2D1E9BA3182F31188581ED7
:101180008B42A0EB01008CBF0023012300EB033056
:10119000704700BF002D002470B5D0F8D442D0F8BD
:1011A000C86200EB840EDEF8C05245B301F00F04B4
:1011B0000A4604EB840C00EB8C0CDCF818306BB99D
:1011C000DEF8C43200211B69C5F8141223B105F5FD
:1011D0000471D5F808029847002070BD04EBC404E0
:1011E00006EB8406F469B3FBF4F604FB1633002B1C
:1011F000E6D11A46CCF818307EF0ECFBECE7032081
:1012000070BD00BFD0F8D42200EB820210B5D2F836
:10121000C042ACB101F00F03D0F8C802D2F8C4222A
:1012200004F5037103EBC303D26800EB8303D4F826
:101230000402D3F86832C4F80C329047002010BD85
:10124000032010BDD0F8D43200EB830010B5D0F8E5
:10125000C04284B1D0F8C4325BB194F80002FF28D8
:1012600007D09B68214694F801229847FF2384F811
:101270000032002010BD032010BD00BF30B52B4C44
:101280008646237A65899D4242D918460834194614
:101290001A4602E0954246D921780C440A44617806
:1012A00092B20529F6D1A1788229F3D19C461A463B
:1012B0001F4903E0AA4234D291F800C0614462445D
:1012C00091F801C092B2BCF1050FF3D191F802C0C0
:1012D000BCF1010FEED1164A02E0A8421DD21378EC
:1012E0001A44034492F801C098B2BCF1050FF4D13E
:1012F0009378812BF1D10CB11023A37119B1002087
:10130000022308714B711AB100210223117153712C
:1013100043230748AEF8003030BD0022002CEBD14B
:10132000ECE70021D7E70024C0E700BF000000245D
:101330000800002430B52B4C8646237A65899D42EF
:1013400042D91846083419461A4602E0954246D951
:1013500021780C440A44617892B20529F6D1A1782B
:101360008229F3D19C461A461F4903E0AA4234D28F
:1013700091F800C06144624491F801C092B2BCF19E
:10138000050FF3D191F802C0BCF1010FEED1164A5E
:1013900002E0A8421DD213781A44034492F801C017
:1013A00098B2BCF1050FF4D19378812BF1D10CB137
:1013B0001023A37119B10020402348710B711AB199
:1013C000002140235171137143230748AEF80030C8
:1013D00030BD0022002CEBD1ECE70021D7E7002440
:1013E000C0E700BF0000002408000024A2E700BFFF
:1013F00003460A2201481A80704700BF4C000024AF
:10140000064B4FF0120C064AA3F11400526DA1F8DE
:1014100000C0022A18BF1846704700BF6C000024A5
:1014200000400058042301480B80704780000024CE
:101430002DE9F047046982B0C3681C4046D081465C
:1014400088464FF0004501F1500701F13806B4FA23
:1014500084F325FA03F21B3BD2431440C9F8102051
:10146000B8F1000F5FD0042B2ED8DFE803F052480C
:101470003D320300D8F81030D9F82CA033B19B6866
:1014800023B11FFA8AF108F108009847D8F82830EC
:1014900033B19B6823B11FFA8AF108F12000984705
:1014A000D8F8403033B19B6823B11FFA8AF108F1B4
:1014B00038009847D8F8583033B19B6823B11FFAE9
:1014C0008AF108F150009847002CC0D102B0BDE865
:1014D000F087D8F8103008F10800D9F834105B68AC
:1014E0009847002CB3D1F1E7D8F8283008F1200054
:1014F000D9F838105B689847002CA8D1E6E7D8F8EF
:1015000040303046D9F83C105B689847002C9ED19B
:10151000DCE7D8F858303846D9F840105B6898476F
:10152000002C94D1D2E7042B07D8DFE803F019038D
:10153000140F0A00D9F83C300193019B002C86D18E
:10154000C4E7D9F82C300193019BF7E7D9F8343080
:101550000193019BF2E7D9F838300193019BEDE745
:10156000D9F840300193019BE8E700BF174A10B556
:101570005368906891681B1AC3F30B03002BF7D0D4
:10158000B1F5805F0AD04B1C1148C3F30B03445CD8
:10159000936092F8F0324BB9204610BD01230C49FC
:1015A000936092F8F0320C78002BF5D09368516874
:1015B00003F6FF735B1AC3F30B03802BECD90023F4
:1015C00082F8F03276F0F2FA204610BD002D0024A9
:1015D00090360024F8B5104D95F8A832012B00D1B3
:1015E000F8BD95F8A832032BFAD10C4B1B79002BD0
:1015F000F6D00F461446D5F8F46208E008F0A0FAD9
:10160000D5F8F432241A07449B1B322BE8D8002C5F
:1016100021463846F2DCF8BD002D002400000024ED
:10162000F8B590F848305D1C0344EDB280F848509E
:1016300083F8341090F8493053B1132D07D90023A3
:1016400080F84830104F97F8A832012B05D1F8BD2B
:1016500080F84830002DF5D1F8BD97F8A832032B5B
:10166000F5D1D7F8F46200F134042946204608F099
:1016700067FAD7F8F4322D1A04449B1B322BE6D8B4
:10168000002DF2D1F8BD00BF002D0024F8B50023D5
:1016900090F84850A0F8483005B9F8BD0D4F97F8BC
:1016A000A832012BF9D097F8A832032BF5D1D7F83F
:1016B000F46200F134042946204608F041FAD7F8D4
:1016C000F4322D1A04449B1B322BE6D8002DF2D1A4
:1016D000F8BD00BF002D00242DE9F0410121044692
:1016E0004FF4077084F0EAFE054600286CD0D4F869
:1016F000D46204EB8606C6F8C002237CC4F8BC02A0
:10170000002B40D040230222812120467DF0D4FED0
:10171000012140230222204621877DF0CDFE4FF09B
:1017200001080823032282212046A4F878817DF055
:10173000C3FE294B0027E364D6F8C432C5F804720F
:101740001B689847D5F80402C5F81472C5F81872DA
:1017500000283ED0227CD4F8C83222BBC3F88C22A9
:101760004FF400749A7903F51E71C3F88402012ABC
:10177000A3F87882C3F8884223D018687EF01AF85C
:101780000020BDE8F08120464FF400730222812141
:101790007DF092FE01214FF4007302222046218742
:1017A0007DF08AFEBBE79A79402403F51E71C3F8E9
:1017B0008C72012AC3F88402A3F87882C3F88842A5
:1017C000DBD1C3F89402D8E7D4F8D432B03344F86C
:1017D00023000220BDE8F08101001000F8B5D0F828
:1017E000C85240F20112044695F894342A87012B1E
:1017F0003ED00126002728683246314685F8946499
:101800007EF068F927873A4631462868A5F878625D
:1018100085F894647EF05EF94FF48173A4F87871D2
:1018200032460221286885F89464A5F85C307EF081
:1018300051F985F89474D4F8D432002504EB83036D
:10184000E564D3F8C0228AB1D3F8C4325B68984704
:10185000D4F8D432B03354F8230084F053FED4F8D3
:10186000D432B03344F82350C4F8BC520020F8BD41
:1018700000224FF481710287A5F87832A0F8782110
:10188000A5F85C10D7E700BFD0F8D43200EB830393
:10189000F0B5002683B0D3F8C0728DF80560ADF8BE
:1018A00006605FB191F800C004460D461CF060026E
:1018B0002FD0202A05D020467DF042FF032003B020
:1018C000F0BDCA884878002A42D01CF0800F00F092
:1018D0008380D3F8C43239469B689847EA8802234C
:1018E0004FF48071072AC4F8943228BF0722D4F835
:1018F000C832C4E906225A629A79998203F1140126
:10190000012A1F629E6200D11F6318687DF052FF9A
:1019100022E04B780B2BCED801A252F823F000BF67
:101920005D19040859190408B7180408B718040801
:10193000B7180408B7180408B7180408B71804083B
:10194000B7180408B71804089D1904089319040867
:10195000D3F8C4329B6898470020B0E790F89C32D7
:10196000032BA8D10222D0F8C8320020C4F8942258
:1019700003F11401C4E906220DF106049862C3E9DB
:1019800008424FF480729A829A79012ABDD11C6371
:10199000BBE790F89C32032BDED08CE790F89C32AA
:1019A000032B88D101220221D0F8C832C0F894124A
:1019B00003F11401C0E906220DF10500C3E9080294
:1019C0004FF4807200209A829A799862012A9CD101
:1019D0000DF10500186398E7402A4FF0030387F8DC
:1019E000000228BF402287F80122C4F89432D4F8BC
:1019F000C832C4F85821C4F85C2103F51571C3F846
:101A000064229A79C3F86072012AC3F86862A3F865
:101A1000546208BFC3F8707277E700BF70B5124D0B
:101A2000124A2B68A2FB03239B09013BB3F1807F81
:101A300001D3012070BD4FF0E0220D4900240F2892
:101A400053614FF0F003064681F823304FF007034F
:101A500094611361EDD801464FF0FF3075F0E0FC62
:101A60002046C5F8846070BD00000024D34D62108C
:101A700000ED00E03749024603688B4233D018314D
:101A8000591AB1FA81F1490969BB3348834240D000
:101A90001830834240D01830834236D01830834209
:101AA0003DD01830834240D0183083422CD000F50E
:101AB0005670834237D029498B4233D018318B423C
:101AC00036D018318B4236D018318B4236D018318F
:101AD0008B4236D018318B4236D018318B4236D0FB
:101AE00023F0FF0013E0DBB21D491E48103B10B489
:101AF0001D4CA4FB03435DF8044B01EB131393F857
:101B00002810C2E91601704716211848D165906562
:101B1000704710211348F9E716211248F6E706210D
:101B20001248F3E706211248F0E710210F48EDE7CD
:101B300010210F48EAE716210D48E7E700210D487C
:101B4000E4E706210B48E1E710210A48DEE7162109
:101B50000848DBE710000240400002402804024031
:101B6000086C0C0800000240ABAAAAAA04000240BC
:101B70000004024004040240F0B50C46114602681D
:101B80008646936913F0100C72D04FF0000C1023AE
:101B900038486546D36193699E065FD445B90368AA
:101BA0005B1AA3423DD893699F06F8D52023D361E1
:101BB0004CF0040C01209369D90552D54FF4807183
:101BC0005F054CF0010CD16104D54FF480614CF0FD
:101BD000080CD1619D0504D54FF400734CF0020C44
:101BE000D3619369990701D5002393629369DB0759
:101BF00003D4936943F001039361536820241E4981
:101C000001200B4000215360DEF844308EF8401074
:101C100043EA0C03CEF844308EF841408EF842106F
:101C2000F0BD57689EF842309669DBB2360408D59D
:101C30007E0406D4202B04D0536843F480435360C1
:101C4000016893699F06A6D403685B1A192BF8D91B
:101C500093694FF0200C01259E069FD5002DA5D03D
:101C6000A6E75E05B1D49C05B6D40028B9D1F0BD75
:101C70006046A0E7002D002400E800FE2DE9F047B3
:101C800007689A46089EBB6931EA03030CBF01232B
:101C90000023934220D180460C461546DFF85C9025
:101CA000324651464046FFF767FF20BBD9F8003067
:101CB000A3EB060CD44507D9BB6934EA03030CBF78
:101CC00001230023AB420AD0BB6934EA03030CBFF3
:101CD00001230023AB42E3D00020BDE8F087D8F811
:101CE0004430202288F840001343C8F8443088F874
:101CF000412088F842000120BDE8F087002D002433
:101D00000C4A136903F03803102B0DD0182B09D09F
:101D100063B913689B060BD513680748C3F3C10367
:101D2000D8407047FFF760B80448704704487047D0
:101D300001487047004402580090D00300127A0016
:101D400000093D00184A136903F03803102B10B541
:101D500024D0182B09D01BBB13689B0622D513680F
:101D60001248C3F3C103D84001E0FFF73DF80E4924
:101D70000F4A8B698969C3F303230E4C01F00F01ED
:101D800013440A4493F8301092F8303001F01F02E7
:101D900003F01F03D0402060D84010BD0648E6E79E
:101DA0000648E4E70148E2E7004402580090D00307
:101DB000086C0C080000002400127A0000093D00A5
:101DC000474A70B4946A956AD66A15F47C3FC5F3A5
:101DD0000533D16B5BD0C1F3CC01C6F3001604F020
:101DE000030407EE903A06FB01F1012CB8EEE77A06
:101DF00006EE901AFAEEE96A03D0022C6AD0002CA3
:101E00004AD0DFED387A87EE876A936BC3F3080315
:101E100007EE903AF7EE005AF8EEE77A77EEA67AF8
:101E200077EEA57A67EE867A2D4AB7EE006A936B55
:101E3000C3F3462307EE103AB8EEC77A70BC37EE0C
:101E4000067AC7EE876AFCEEE66AC0ED006A936B1D
:101E5000C3F3064307EE103AB8EEC77A37EE067AB8
:101E6000C7EE876AFCEEE66AC0ED016A936BC3F3C6
:101E7000066306EE903AF8EEE66A76EE866A87EE3C
:101E8000A67AFCEEC77A17EE903A8360704770BC72
:101E9000C0E900338360704713689B061DD5146842
:101EA000F7EE005A936B1049C4F3C102C3F3080361
:101EB000D14007EE903A06EE101AF8EEE77AB8EE47
:101EC000C66A77EEA66AC6EE077A36EEA57A67EEA0
:101ED000877AA9E7DFED057A95E7DFED057A92E7E6
:101EE000004402580024744A0090D0030024F44AAD
:101EF0000024744C474A70B4946A956AD66A15F007
:101F00007C7FC5F30553516C5BD0C1F3CC01C6F3A4
:101F1000002604F0030407EE903A06FB01F1012CC1
:101F2000B8EEE77A06EE901AFAEEE96A03D0022CD0
:101F30006AD0002C4AD0DFED387A87EE876A136CBE
:101F4000C3F3080307EE903AF7EE005AF8EEE77A8B
:101F500077EEA67A77EEA57A67EE867A2D4AB7EE07
:101F6000006A136CC3F3462307EE103AB8EEC77A43
:101F700070BC37EE067AC7EE876AFCEEE66AC0ED03
:101F8000006A136CC3F3064307EE103AB8EEC77A43
:101F900037EE067AC7EE876AFCEEE66AC0ED016AA4
:101FA000136CC3F3066306EE903AF8EEE66A76EE3B
:101FB000866A87EEA67AFCEEC77A17EE903A8360BF
:101FC000704770BCC0E900338360704713689B069C
:101FD0001DD51468F7EE005A136C1049C4F3C10202
:101FE000C3F30803D14007EE903A06EE101AF8EE5C
:101FF000E77AB8EEC66A77EEA66AC6EE077A36EEDC
:10200000A57A67EE877AA9E7DFED057A95E7DFED38
:10201000057A92E7004402580024744A0090D003E5
:102020000024F44A0024744C0269836870B50446A5
:1020300005681343C069626986B029681343AC4AD6
:1020400003430A40616A1343E2682B606B6823F420
:1020500040531343A2696B60A64B9D4200F066811A
:10206000236AAE681A43A44B33401A43AA60EB6A52
:1020700023F00F030B43EB62A04B9D4228D0A04BF3
:102080009D421AD09F4B9D4217D09F4B9D4214D02A
:102090009E4B9D4211D09E4B9D4219D09D4B9D421F
:1020A0000BD09D4B9D4208D0012000234FF0011220
:1020B0006367A266A36706B070BD984B5B6D03F0C3
:1020C0000703052BF0D8DFE803F09F7F8A925F7942
:1020D000924B5B6D03F03803282BE5D801A252F830
:1020E00023F000BF91220408A9200408A9200408B5
:1020F000A9200408A9200408A9200408A92004088C
:10210000A9200408C9210408A9200408A92004085A
:10211000A9200408A9200408A9200408A92004086B
:10212000A9200408DF210408A9200408A920040824
:10213000A9200408A9200408A9200408A92004084B
:10214000A9200408EF210408A9200408A9200408F4
:10215000A9200408A9200408A9200408A92004082B
:10216000A920040889210408A9200408A92004083A
:10217000A9200408A9200408A9200408A92004080B
:10218000A9200408BD210408B0F5004F644853D0CD
:10219000644B626803EB4103B3F84030B0FBF3F0EB
:1021A00000EB52004FF6EF73B0FBF2F0A0F110021B
:1021B0009A423FF679AFE860002076E7B0F5004F2D
:1021C0003AD04FF40040E3E7B0F5004F2DD003A81C
:1021D000FFF7F6FD04980028EED0616AD8E7B0F565
:1021E000004F71D06846FFF785FE0198F3E7B0F520
:1021F000004F5ED0494B1A68920639D51B684A4891
:10220000C3F3C103D840C3E7B0F5004F32D0FFF7A6
:1022100099FD424A434BD269C2F30212134493F828
:10222000303003F01F03D840D5E703A8FFF7C8FDFF
:1022300004980028C0D0616A3A4B626803EB4103FE
:102240004FF6EF71B3F84030B0FBF3F0530803EBF7
:102250004003B3FBF2F3A3F110028A423FF624AF2E
:1022600023F00F02C3F3420392B21343EB60A3E7E0
:102270002D488DE7FFF766FD284A2A4BD269C2F345
:102280000212134493F8303003F01F03D840D0E714
:10229000B0F5004F1DD0FFF755FD204A214BD26904
:1022A000C2F30222134493F8303003F01F03D840E6
:1022B00091E71A4B1A68900640F1A5801B681A48EE
:1022C000C3F3C103D840B7E76846FFF713FE019890
:1022D000AFE7FFF737FD114A124BD269C2F3022272
:1022E000134493F8303003F01F03D840A1E700BF38
:1022F000F369FFCF000C0058FFF4FF1100100140FC
:102300000044004000480040004C004000500040A5
:102310000014014000780040007C00400044025856
:1023200000093D00086C0C080090D003A868374BEA
:1023300003401343364AAB60EB6A23F00F030B43B1
:10234000EB62936D03F00703052B3FF6ADAEDFE8BC
:1023500003F0413C3303524F2D4B1A6895064CD481
:102360002C482D4B656803EB410305EB4501B3F8A1
:102370004020B0FBF2F399423FF696AEB3EB053F37
:102380003FF692AE002319467FF0E8FC2A46090288
:10239000030241EA1061680818184FF0000341F188
:1023A00000017FF0DBFC1D4BA0F540729A423FF626
:1023B0007BAE1B4BD860FFE66846FFF79BFD01989C
:1023C00000283FF4F9AE616ACBE703A8FFF7F8FCF9
:1023D0000498F5E7FFF7B6FC0D4A0F4B126AC2F3FB
:1023E0000212134493F8303003F01F03D840E7E79C
:1023F0004FF40040B5E70B48B3E71B680548C3F34B
:10240000C103D840ADE7034816E700BFFFF4FF1152
:10241000004402580090D003086C0C08FFFC0F0029
:10242000000C005800093D00474A70B4946A956A50
:10243000D66A15F47C7FC5F30513516B5BD0C1F3ED
:10244000CC0106F0010604F0030407EE903A06FB07
:1024500001F1012CB8EEE77A06EE901AFAEEE96A7D
:102460004ED0022C6DD0002C4DD0DFED387A87EEA7
:10247000876A136BC3F3080307EE903AF7EE005A2E
:10248000F8EEE77A77EEA67A77EEA57A67EE867AA7
:102490002D4AB7EE006A136BC3F3462307EE103ADA
:1024A000B8EEC77A70BC37EE067AC7EE876AFCEEE4
:1024B000E66AC0ED006A136BC3F3064307EE103AF9
:1024C000B8EEC77A37EE067AC7EE876AFCEEE66AA0
:1024D000C0ED016A136BC3F3066306EE903AF8EEA3
:1024E000E66A76EE866A87EEA67AFCEEC77A17EE83
:1024F000903A8360704770BCC0E9003383607047D6
:10250000DFED137AB3E713689B06AED51468F7EED8
:10251000005A136B0F49C4F3C102C3F30803D1403F
:1025200007EE903A06EE101AF8EEE77AB8EEC66AB1
:1025300077EEA66AC6EE077A36EEA57A67EE877A58
:10254000A6E7DFED057A92E7004402580024744CB8
:102550000024744A0090D0030024F44A344A1368DB
:1025600030B423F08063334C1360256803E02368A4
:102570005B1B022B54D813681B01F8D4936A0568BF
:1025800023F47C3343EA053393628368C568013BD7
:10259000013D5B022D049BB205F4FE052B4345680B
:1025A000013DC5F308052B430569013D2D0605F0E6
:1025B000FE452B439363D36A456923F0C0032B4345
:1025C000D362D36A856923F020032B43D362D36A95
:1025D00023F01003D362D36BC0696FF3CF0343EAD8
:1025E000C003D363D36A43F01003D362D36AD1B17B
:1025F00001290CBF43F4801343F40013D3620C4A47
:10260000136843F080631360216803E023685B1A5A
:10261000022B05D813681B01F8D5002030BC704789
:10262000032030BC704743F40023D362E7E700BFC8
:1026300000440258002D0024344A136830B423F0BB
:102640008053334C1360256803E023685B1B022B27
:1026500054D813689B00F8D4936A056823F07C7300
:1026600043EA055393628368C568013B013D5B0201
:102670002D049BB205F4FE052B434568013DC5F3CF
:1026800008052B430569013D2D0605F0FE452B434A
:102690001364D36A456923F440632B43D362D36A3E
:1026A000856923F400732B43D362D36A23F48073C8
:1026B000D362536CC0696FF3CF0343EAC003536422
:1026C000D36A43F48073D362D36AD1B101290CBFBA
:1026D00043F4000343F08073D3620C4A136843F061
:1026E00080531360216803E023685B1A022B05D82E
:1026F00013689B00F8D5002030BC7047032030BC25
:10270000704743F48003D362E7E700BF00440258F8
:10271000002D0024F0B5354AB0F1804F344DA0EBC8
:1027200002020368A0EB050E4C69B2FA82F28F68D0
:10273000BEFA8EFE0E684FEA52124FEA5E1E1FD09E
:10274000F2B9DFF8B8C0604537D00CF5806C604551
:1027500033D00CF5806C604512D0BEF1000F0FD164
:10276000244D254A904218BFA8422AD002F5806223
:10277000904226D023F08003C76286621C4314E097
:102780004D6823F07003D1F80CC02B43C7628662FA
:1027900023F4407343EA0C0323F080031C4312B973
:1027A000BEF1000F16D00B6903630368012243F0EA
:1027B0000403036042610460F0BD23F070034A68C3
:1027C0001343CA6823F44073C7621343866223F03D
:1027D00080031C43074A084B984218BF9042E2D03E
:1027E00003F580639842DED0DFE700BF00000140C0
:1027F000000401400040014000440140000400404A
:10280000026810B452E8003F23F4907342E80031AC
:102810000029F7D1144C02F1080353E8003F23408C
:1028200002F1080C4CE800310029F4D1C36E012BF1
:1028300008D0002320225DF8044BC0F88C204367A9
:10284000C366704752E8003F23F0100342E80031AE
:102850000029EED052E8003F23F0100342E8003197
:102860000029EFD1E5E700BFFEFFFFEF436BDA6918
:10287000F0B5970683B0044642D5586AE36AC0B201
:10288000002B00F09580216B9847636B1A681D46FA
:1028900022F480721A609A6822F001029A609A69A2
:1028A00042F008029A61DA69D6072DD4DA699007F6
:1028B00001D502221A62DA69510701D504221A628F
:1028C000DA69120701D508221A62DA69170612D5E9
:1028D000D4F8BC20212A0ED0D4E909128A4273D040
:1028E000A169895C0132C9B299622169B2FBF1F038
:1028F00001FB1022A262DA69560608D403B0F0BDCB
:10290000DA691D46D607D1D501221A62CEE7DA6907
:1029100040F60F0C1E6804F1340012EA0C0F99689F
:1029200036D0B24F0F4040F0BB80DFF8CCC216EA81
:102930000C0F40F06381D4F8A050012D4CD0D5028B
:1029400002D54F0200F16781150606D501F400019A
:1029500006F080050D4340F043815106CED5720646
:10296000CCD553E8002F22F0400243E8002141B1CA
:10297000626B52E8003F23F0400342E80031002937
:10298000F7D120220023C4F8BC20C4F8AC30B5E74E
:102990009506D0D506F0200501F080573D43CAD0FA
:1029A000D4F8A830002BA9D003B0BDE8F0401847F8
:1029B000E3696269D054E369E2680133B3FBF2F181
:1029C00002FB1133E36160E70022A4F88A201A6851
:1029D00022F080021A608EE7D706B0D5F506AED594
:1029E0001022B4F890501A629A68570640F11D817F
:1029F000D4F8B40001684A6892B2002A00F050810D
:102A0000AA4280F04D81C169A4F89220B1F5807F7F
:102A100040D053E8002F22F4807243E8002141B1F6
:102A2000626B52E8001F21F4807142E80015002D0E
:102A3000F7D103F1080252E8002F22F0010203F15E
:102A4000080545E800210029F3D103F1080252E806
:102A5000002F22F0400203F1080545E8002100297B
:102A6000F3D12022C4F8C020C4F8A01053E8002FEE
:102A700022F0100243E80026002EF7D15C490D68D1
:102A800040B190F83530022B00F01381802380F89C
:102A9000346043650223C4F8A430B4F892302DE7C3
:102AA00012F0010F0CD016F4807F09D04FF0010C0A
:102AB000C3F820C0D4F8C4C04CF0010CC4F8C4C0A2
:102AC00012F0020F7BD112F0040F0CD011F0010FA5
:102AD00009D04FF0040CC3F820C0D4F8C4C04CF0A7
:102AE000020CC4F8C4C012F0080F0CD006F0200C81
:102AF0005CEA070C07D008271F62D4F8C47047F0BF
:102B00000807C4F8C47017050AD5770108D54FF433
:102B100000671F62D4F8C43043F02003C4F8C43007
:102B2000D4F8C430002B3FF4E9AE92060CD506F081
:102B3000200601F080510E4306D0D4F8A8301BB116
:102B400001909847656B0198D4F8C420AB6802F0F7
:102B5000280203F04003134361D0FFF751FEAB6836
:102B60005B067FF5CBAE05F1080353E8003F23F089
:102B7000400305F1080141E8003262B1626B02F1E5
:102B8000080353E8003F23F0400302F1080040E847
:102B900000310029F3D1D4F8B40000283FF4AEAEE0
:102BA00090F83520134B022A03653BD1FDF75EFAFE
:102BB00000283FF4A3AED4F8B400036DF4E611F09E
:102BC000010F90D04FF0020C12F0040FC3F820C098
:102BD000D4F8C4C04CF0040CC4F8C4C083D078E767
:102BE000D4F8AC30002B7FF4DFAE87E60100001094
:102BF000002D00247D0F04082001000412F0010FB5
:102C00003FF471AF16F4807F7FF450AF12F0020FE3
:102C10007FF469AF57E74FF480121A626EE6C4F88A
:102C2000C4306BE680224265BEE6B4F89220B4F868
:102C3000921092B289B2AA423FF460AE00293FF4EA
:102C40005DAE53E8002F22F4907243E8002141B1B9
:102C5000626B52E8001F21F4907142E800100028D6
:102C6000F7D1954803F1080252E8002F024003F122
:102C7000080545E800210029F4D12022C4F8A81055
:102C8000C4F8C020C4F8A01053E8002F22F01002AE
:102C900043E800210029F7D10223C4F8A4302DE62F
:102CA000AA427FF42BAEC369B3F5807F7FF426AED2
:102CB000F2E70368814A824E824FB34218BF9342C3
:102CC00006F118060CBF01220022B34208BF42F0F1
:102CD00001021836B34208BF42F001021836B3426F
:102CE00008BF42F001021836B34208BF42F00102A9
:102CF00006F55676B34208BF42F001021836B342D9
:102D000008BF42F001021836B34208BF42F0010288
:102D10001836B34208BF42F001021836B34208BF6A
:102D200042F001021836B34208BF42F001021836E1
:102D3000B34208BF42F00102A6F59266BB4218BF3B
:102D4000B34207F592670CBF01260026BB4208BFBD
:102D500042F0010256EA020779D0D3F800C02CF005
:102D60001E0CC3F800C0D3F814C02CF0800CC3F8BC
:102D700014C0D0F860C076BBD0F860C0DCF800604A
:102D800026F48076CCF800601A6822F001021A60FE
:102D900003E00A68521B052A24D81A68D607F8D41B
:102DA000D0E9165101F01F012FB33F238B40AB60D8
:102DB000C36ED0E91921516033B11A68016F22F452
:102DC00080721A60436F4B600122002380F8352027
:102DD00080F834305EE6DCF8002022F48072CCF813
:102DE0000020D1E7202103220023416580F8343000
:102DF00080F835204EE6344A344EB34218BF934231
:102E000006F114060CBF01220022B34208BF42F0B3
:102E100001021436B34208BF42F001021436B34235
:102E200008BF42F001021436B34208BF42F001026B
:102E3000012606FA01F1696025498B4208BF42F07C
:102E40000102002AB4D1234A9342B1D0BCE71E4EFE
:102E5000DFF878C0634518BFB3420CF1140C0CBF07
:102E600001260026634508BF46F001060CF1140C4C
:102E7000634508BF46F001060CF1140C634508BF1A
:102E800046F001060CF1140C634508BF46F001063C
:102E9000D3F800C02CF00E0CC3F800C0DFF830C02F
:102EA000634508BF46F00106002E7FF465AF094E6A
:102EB000B3423FF461AF67E7FEFFFFEF400002401F
:102EC0005800024028000240085402581C5402587E
:102ED00080540258945402584B4B10B41B684B4C0E
:102EE000A4FB03435B0A03FB02F25AB18446531E60
:102EF0004748DCF83420013B024201D0920406D559
:102F00005C1CF6D14FF000405DF8044B7047DCF8D4
:102F100034305C0741D4DCF83430D80709D43D4B59
:102F2000CCF83830DCF81030DBB2994205D0012003
:102F3000EAE70123CCF83830F9E7DCF814303648FA
:102F400018400028E0D0002B2CDB5A002DD49C0028
:102F50002DD4D9002DD41A012ED45C012FD4D9013F
:102F600030D41A0231D45C0232D499023CD4DA0251
:102F700037D45C0332D499032DD4DA0340D41C0433
:102F80003BD4590436D49A0431D413F0080F0CBF43
:102F90004FF480304FF40000B6E704231846CCF815
:102FA0003830B1E74FF00070AEE74020ACE780204A
:102FB000AAE74FF48070A7E74FF40070A4E74FF43E
:102FC0008060A1E74FF400609EE74FF480509BE7DC
:102FD0004FF4005098E74FF4802095E74FF400300D
:102FE00092E74FF400408FE74FF480408CE74FF4B6
:102FF000800089E74FF4001086E74FF4801083E7E4
:103000004FF4002080E700BF00000024D34D621081
:1030100045002000C500200008E0FFFD82B000232D
:10302000019302E00369002B09DB019B013301934B
:10303000019BB3F1706FF5D9032002B0704789018D
:10304000002341F020010193016103E0036913F0C3
:10305000200307D0019B01330193019BB3F1706FF3
:10306000F4D9E9E7184602B0704700BF82B00023E8
:10307000019302E00369002B09DB019B01330193FB
:10308000019BB3F1706FF5D9032002B070470022A5
:1030900010230192036103E0036913F0100307D0CA
:1030A000019B01330193019BB3F1706FF4D9EBE7FE
:1030B000184602B0704700BF82B00023019302E0BF
:1030C0000369002B09DB019B01330193019BB3F1E1
:1030D000706FF5D9032002B0704700230193036994
:1030E00043F00103036103E0036913F0010307D018
:1030F000019B01330193019BB3F1706FF4D9E9E7B0
:103100001846E8E72DE9F843056807460C46C5F37D
:103110001009B9F1000F39D18A4B4FF6FF72B3F89D
:103120008030934256D0002B54D0874A02EA43287D
:1031300008F10068454534BF4FF001084FF0020820
:10314000824B9D4206D903F500339D4200F2CF80A9
:103150004FF001097E4E96F80C33012B12D001235B
:10316000B8F1010F86F80C334FF00003C6F81033A6
:1031700036D0022074F000F9002800F09980002376
:1031800086F80C334FF0FF30BDE8F883704E96F8A8
:103190000C33012B4CD0012386F80C3305F1784316
:1031A000B3F5801F48D3A5F10163B3F5801F3FD26B
:1031B00000230220C6F8103374F0DEF8002870D126
:1031C000644A4FF00208D2F80C3143EA0803C2F80F
:1031D0000C313FE0B5F1016F67D3052012F098F98B
:1031E000404674F0C9F80028C9D14046DFF8648130
:1031F000D8F80C3023F4E663C8F80C30D8F80C305B
:1032000043EA092343F0A403C8F80C3074F0B4F87F
:10321000D8F80C20504B1340C8F80C300028AED121
:1032200005F178430122B3F5801F86F80C2303D300
:103230006FF00100BDE8F88300230120C6F81033C9
:1032400074F09AF868BB434A4FF00108D36843F022
:103250000203D360BFF36F8FBFF34F8F04F12002DF
:1032600054F8043B944245F8043BF9D1BFF36F8F07
:10327000BFF34F8F404674F07FF8B8F1010F354A25
:1032800030D0D2F80C3123F00203C2F80C31002305
:1032900086F80C330028CBD13B6820333B60BDE877
:1032A000F883002386F80C33C2E74FF0010847E7A4
:1032B000DFF8A0800220D8F80C3123F4E663C8F8C8
:1032C0000C31D8F80C3143EA092343F0A403C8F8C1
:1032D0000C3174F051F8D8F80C211F4B1340C8F88A
:1032E0000C319BE7D36823F00203D360CFE703F5EB
:1032F00000339D4211D903F500339D4210D903F5E7
:1033000000339D4206D903F500339D420BD84FF0A0
:1033100005091FE74FF004091CE74FF0020919E700
:103320004FF0030916E703F500339D4206D9B5F1C6
:10333000016FBFF452AF4FF007090BE74FF00609DA
:1033400008E700BF00E8F11F00FE1F00FFFF0108B3
:10335000002D002400200052FBF8FFFF0148FDF77C
:1033600081B800BF18300024084810B4D0F81833D2
:10337000D0F84C4399691A682CB1234600F5467081
:103380005DF8044B18475DF8044B7047002D00248E
:103390000148FDF767B800BF70300024084810B43A
:1033A000D0F87033D0F8A44399691A682CB1234639
:1033B00000F55C705DF8044B18475DF8044B7047EE
:1033C000002D00240148FDF74DB800BFC83000248F
:1033D000084810B4D0F8C833D0F8FC4399691A688B
:1033E0002CB1234600F572705DF8044B18475DF868
:1033F000044B7047002D00242DE9F04FDFF85C935B
:1034000000EB400583B0430009EB85050093D5F838
:1034100088300193002B00F05E818046B5F88E0065
:1034200073F092FA95F88C000FF060F9044695F865
:103430008D000FF05BF908F101030746DBB2002CA9
:1034400000F06E8140F60C12A1882372E28022689F
:10345000002800F05981037240F60C23C38091616B
:103460003B68BA889A611121204609260FF0FAF8C4
:10347000112138460FF0F6F86525002C00F02E815A
:103480002268A38811690B4200F028811B04936114
:1034900011F02AFD05468B4611F026FD401B61EB1D
:1034A0000B01052871F10001F6D314B12368A2883D
:1034B0009A6111F019FD05468B4611F015FD401B70
:1034C00061EB0B01052871F10001F6D3013ED3D168
:1034D0001CB1A38822681B04936111F005FD054609
:1034E0000E4611F001FD401B61EB0601052871F14C
:1034F0000001F6D31FB1BB883A681B04936111F039
:10350000F3FC05460E4611F0EFFC401B61EB060193
:10351000052871F10001F6D314B12368A2889A61DD
:1035200011F0E2FC05460E4611F0DEFC401B61EB9B
:103530000601052871F10001F6D317B13B68BA887E
:103540009A61009B20463E21434409EB830393F894
:10355000934022460FF0A8F8224638463E210FF04D
:10356000A3F8784C5823019A03FB0843C3F81823A7
:10357000754B9A4200F0C380FEF7E4FB734BDA69A7
:10358000C2F30212724B134493F8303003F01F035E
:10359000D840009B434409EB830393F89030022BFF
:1035A00000F0B980032B00F0B180012B14BF4FF461
:1035B000C8714FF4487173F0F9FA0346582200219C
:1035C00002FB0842C2F82013C2F81C33C2E9CA1138
:1035D000C2E9CD110121C2F8241392F8591301F068
:1035E000FF00002900F0A480582123F070622426F7
:1035F0004FF4004701FB08415648D1F8183381F8D1
:1036000059631D6825F001051D601A619A6822F44E
:1036100000429A609F605A6822F400625A605A68B9
:103620001043D1F8302358601202D86820F40040CB
:10363000D860DA6000221A60186840F00100186053
:103640002020C1F85C2381F85903C1F8482381F890
:103650005A2391F859032028C5B217D191F858037D
:10366000012813D081F85963186820F00100186010
:10367000186820F48050186018681860186840F0C6
:103680000100186081F8595381F85823009B0221EA
:103690000126314F434409EB830999F8925028469B
:1036A00073F0BEFE05F01F036A0999F8915006FAFF
:1036B00003F30221284647F8223073F0B1FE582365
:1036C00003FB084405F01F036D0906FA03F347F8EE
:1036D000253084F8146303B0BDE8F08F013D2AD093
:1036E00011F002FC83468A4611F0FEFBB0EB0B00A2
:1036F00061EB0A01052871F10001F5D3BDE6FEF783
:1037000021FB124B1A6A3BE79161ACE6C82173F0CA
:103710004DFA034652E7642173F048FA03464DE739
:1037200000283FF4A0AE037240F60C23C38097E656
:1037300082F8580358E7002C3FF4AAAEA388226809
:10374000A4E600BF002D0024001C005800440258CD
:10375000086C0C080080000200E100E0000000247A
:103760002DE9F04F441C85B017469DF83C202DD024
:103770005824DFF8A8831E46054600FB04F408EB36
:10378000040393F81493B9F1000F1FD04444490087
:10379000FF2F04F54674039100D0EEB9002A40F0E3
:1037A000C680582303FB058393F85923202A04D1AC
:1037B000B6B94FF40072C3F85C23B8F81C3428463D
:1037C00001339BB2A8F81C34FFF716FE4FF0000936
:1037D000484605B0BDE8F08F93F85933202BECD163
:1037E0004FF0580A0AFB058A9AF85833012BE4D0A7
:1037F0000122D8F800B019234FF400418AF8582369
:103800002046CDF800B0FEF739FA0028D5D10E9B3E
:10381000DAF81813CAF83C332123BA4A8AF8593324
:103820004023CAF84C038AF85A33CAF85C0320468E
:10383000AAF842634B681340039A1343B24A1A43EF
:103840004A60594673F06AFD0246002840F0FB804A
:10385000DAF81833802120469F620A23CDF800B0A1
:10386000FEF70CFA002840F0EE80BAF842339BB223
:10387000FF2B40F21681DAF81813FF23A348AAF8A9
:1038800040334B68A24A0340039803431A434A60FB
:103890005826DDF80CA05F46039506FB058605E07B
:1038A000B6F842339BB2002B00F010813946204617
:1038B00073F034FD002840F0F280D6F83C13D6F8BF
:1038C000185311F8012BB6F84033AA62C6F83C131E
:1038D000013BB6F842139BB20139A6F8403389B2D6
:1038E000A6F84213B6F8421389B2002BD8D10029AA
:1038F000D6D002460A23802120460097FEF7BEF963
:10390000FF22002840F0CB80B6F842339BB29342AE
:1039100040F2A080D6F81813A6F840234B687B4AE3
:1039200013407B4A43EA0A031A434A60B8E74FF060
:10393000580A0AFB058A9AF85933202B7FF43DAFC9
:103940009AF85833012B3FF438AF0122D8F80070B1
:1039500019234FF400418AF8582320460097FEF7B8
:103960008DF900287FF429AF0E9BCAF84C03CAF8E2
:103970003C3321238AF8593310238AF85A33CAF882
:103980005C03AAF84263BAF842339BB2FF2B00F201
:10399000C780BAF842339BB2AAF84033002B40F0FC
:1039A000F180DAF8181357484B685A4A03400398D5
:1039B00003431A434A605826AA4606FB0586B6F812
:1039C000423339469BB2002B00F0D480204673F07E
:1039D000A5FC002878D1D6F83C13D6F8185311F876
:1039E000012BB6F84033AA62C6F83C13013BB6F887
:1039F00042139BB20139A6F8403389B2A6F84213AC
:103A0000B6F8421389B2002BD9D10029D7D002468B
:103A10000A23802120460097FEF730F9FF22002874
:103A200052D1B6F842339BB2934225D9D6F8181337
:103A3000A6F840234B68354A1340039A1343344A8F
:103A40001A434A60BBE75823002203FB058383F82F
:103A50005823B2E6B6F84233D6F818239BB22B4867
:103A60005168A6F84033DBB201404AEA03430B43F6
:103A700043F00073536013E7B6F84233D6F81813D7
:103A80009BB2039A2148A6F84033DBB242EA0343D3
:103A90004A680240134343F000734B608FE7039D75
:103AA0008BE6BAF84233DAF818139BB2039A174838
:103AB000AAF84033DBB242EA03434A6802401343A8
:103AC00043F000734B60E3E6554676E63946204600
:103AD000039D73F0F5FB00287FF46FAED6F8183322
:103AE00020210D4CD9615A6822405A605823002287
:103AF00086F8591303FB058386F85A0383F8582385
:103B000066E600BF009800FC00200101009C00FC5C
:103B10000000FF010020000200E800FE002D00244C
:103B2000FF234FF47F00FE224FF08076AAF8403347
:103B3000039BDDF838E01E4358231EF801AB03FB5E
:103B40000583DFF850C0D3F81813C1F828A0A3F8F4
:103B50004023B3F84223C3F83CE3013A92B2A3F8FE
:103B600042234B6803EA0C033343034343F40053FB
:103B70004B6020E72046554673F0A2FB00287FF4F7
:103B80001CAEABE7013B4FF000769AB2501CC0B2BE
:103B90000004CDE7009800FC2DE9F04F441C85B0EF
:103BA00099469DF83C3000F096805825C34C064657
:103BB00000FB05F504EB050B9BF814A3BAF1000F0D
:103BC00000F089802544FF2A90464FEA410705F519
:103BD000467540F08680002B00F083809BF85933B7
:103BE000202B6FD19BF85833012B6BD00122D4F8D6
:103BF000008019234FF400418BF858232846CDF854
:103C00000080FEF73BF800285CD10E9BCBF84C03FC
:103C1000CBF83C3322238BF8593310238BF85A33DB
:103C2000CBF85C03ABF84293BBF842339BB2FF2B5B
:103C300000F21081BBF84233DBF818139BB2A048A6
:103C40004A68ABF84033DBB2024047EA0343134310
:103C50009C4A1A434A604FF0580909FB0649B9F8D3
:103C600042339BB2002B00F08481D9F818339A6953
:103C7000520700F1318142460A212846FDF77CFFB8
:103C8000002840F0F480D9F818339A69910640F181
:103C9000F9809A699A6912F0100200F0F1801022FE
:103CA0002021894DDA610422C9F85C23D9615A6860
:103CB0002A405A6089F8591389F8580389F85A0339
:103CC00022689B69B4F81C34304601339BB2A4F8D7
:103CD0001C34FFF791FB4FF0000A504605B0BDE8D9
:103CE000F08F4FF0580B0BFB064B9BF85933202BF2
:103CF000E8D10E9B002B00F0A8809BF85833012BD5
:103D0000E0D0236801224FF4004128468BF8582365
:103D1000039300931923FDF7B1FF0028D2D122238A
:103D2000DBF818130E9A8BF859334023CBF83C2359
:103D30008BF85A33CBF85C03ABF84293DFF88091F1
:103D40004A68CBF84C03284602EA09023A4342F497
:103D500090324A60039973F0E1FA0246002840F07D
:103D60003481402328461946DBF81833C3F82880ED
:103D7000039B00930A23FDF781FF002840F0258173
:103D8000BBF842339BB2FF2B40F22681DBF81813BD
:103D9000FF234E4AABF840334B6803EA09033B4329
:103DA0001A434A604FF05808B946039F08FB06487B
:103DB00005E0B8F842339BB2002B00F01F810A23C4
:103DC0000022042128460097FDF758FF00287FF4C1
:103DD00079AFD8F81833596AD8F83C331970B8F865
:103DE0004213D8F83C330139013389B2C8F83C3367
:103DF000B8F84033A8F84213013BB8F842139BB21D
:103E000089B2A8F840330029D3D0002BD1D1024683
:103E10000A23802128460097FDF730FFFF22002863
:103E20007FF450AFB8F842339BB2934240F2BB806C
:103E3000D8F81813A8F840234B68254A1340254AA0
:103E400043EA09031A434A60B3E74FF40073CBF81F
:103E50005C3337E7DBF81813FF231948ABF840331E
:103E60004B681A4A03403B431A434A60F3E658231F
:103E700003FB0643D3F818339A6922689B6921E74C
:103E8000C9F85C232268A2EB08020A2A7FF6EFAE8B
:103E90009A6912F004027FF4EAAE582101FB064150
:103EA000D1F85C0381F85823202240F02000C1F8AB
:103EB0005C0381F859239B6904E700BF002D0024AF
:103EC000009800FC0024000200E800FE0024FF012E
:103ED000009C00FC0000FF015A6AD9F83C331A70BC
:103EE000B9F84233D9F83C23013B01329BB2C9F8FF
:103EF0003C23A9F84233B9F84033B9F84223013BD7
:103F000092B29BB2A9F84033002A3FF4A8AE002B2E
:103F10007FF4A5AE0A23002280212846CDF8008038
:103F2000FDF7ACFE00287FF4CDAEB9F842339BB26A
:103F3000FF2B0CD9D9F81813FF233B48A9F84033BD
:103F40004B683A4A03403B431A434A6087E6B9F854
:103F50004233D9F818139BB233484A68A9F8403362
:103F6000DBB2024047EA0343134343F000734B6064
:103F700075E64146284673F0A3F900287FF4A2AE07
:103F8000D9F8183320212A4DD9615A682A405A603D
:103F900089F8591389F85A035822002302FB064472
:103FA00084F8583399E6B8F84233D8F818239BB20E
:103FB0001D485168A8F84033DBB2014049EA034389
:103FC0000B4343F000735360F3E65823002203FBD6
:103FD000064383F8582375E6BBF84233DBF8181321
:103FE0009BB24A68ABF84033DBB202EA090247EA07
:103FF000034313430F4A1A434A60D3E60399284602
:1040000073F05EF9034600287FF45CAED8F81823FD
:104010002020074DD06151682940516088F859032C
:1040200088F85A33B8E700BF009C00FC0000FF018D
:1040300000E800FE002400020348D0F8B8300BB1BD
:10404000AC301847704700BF000000240348D0F888
:10405000D8300BB1CC301847704700BF00000024A7
:104060000348D0F8F8300BB1EC301847704700BF68
:10407000000000240348D0F8183113B100F5867011
:1040800018477047000000240348D0F8383113B1B6
:1040900000F5967018477047000000240348D0F8D8
:1040A000583113B100F5A67018477047000000247E
:1040B0000348D0F8783113B100F5B670184770474F
:1040C000000000240348D0F8983113B100F5C67001
:1040D00018477047000000240348D0F8B83113B1E6
:1040E00000F5D67018477047000000240348D0F848
:1040F000D83113B100F5E67018477047000000246E
:104100000348D0F8F83113B100F5F670184770473E
:10411000000000240348D0F8183213B100F50370F2
:1041200018477047000000240348D0F8383213B114
:1041300000F50B7018477047000000240348D0F8C2
:10414000583213B100F5137018477047000000246F
:104150000348D0F8783213B100F51B701847704748
:10416000000000240348D0F8983213B100F5237002
:10417000184770470000002410B41C46436884466A
:104180006FF30F0323434360036843F001030360AD
:10419000036843F400730360002C3AD040F2E93026
:1041A000DCF814309B0748D5002A49D012F8013BAF
:1041B00040F2E9308CF82030DCF81430DB0720D4F2
:1041C0000138F9D1214B9C450CD0A3F578439C458F
:1041D00038D003F580639C4536D003F578439C4581
:1041E0000BD103201A4A00EB400002EBC002B2F8E8
:1041F000C03201339BB2A2F8C03200205DF8044BFC
:1042000070479CF83000C0B209B101F8010B013CC5
:10421000C4D1DCF814301B07FBD5DCF818300120C2
:104220005DF8044B43F01003CCF81830DCF8003094
:1042300023F00103CCF8003070470138B0D1C1E75A
:10424000FF23B5E70120CDE70220CBE70030014096
:10425000000000242DE9F84300242C4E804603681A
:1042600056F83450AB4209D001340E2CF8D1284A0C
:104270000021052009F062F9002019E0254B03EB2D
:104280008409D9F82074AFB198F8051000204B1CB0
:1042900001EB410203EB430307EBC202DB00C2F870
:1042A0000C80C2E90400F854182303FB01700830A5
:1042B000BDE8F8830721682009F0C8F90146C9F86C
:1042C0002004F0B13946682282F083FAD9F820142C
:1042D00006EBC4043B4689600C600962896309658A
:1042E00056F83320954205D001330E2BF8D14F609C
:1042F0000F46C9E7084F4C2202FB03774F600F4679
:10430000C2E7064A052009F019F9B5E7606C0C0808
:1043100014160D08002D0024583100243C160D08F9
:10432000B0B1022330B4D0E900428D68646852799C
:1043300003FA02F223684C685CB1DC6885B1224361
:104340008160DA60DA6842F00102DA6030BC7047FE
:104350007047DC6824EA0202DA604DB18160F1E75F
:1043600024F00104DC60DC6881602243DA60EDE760
:10437000DA6822F00102DA608160E7E7F0B54468AC
:10438000A37913F002025FD002224FF0080C0368F9
:1043900064795B689B48204493F83C40012C90F87A
:1043A000C80050D0012483F83C40142848D8DFE8E6
:1043B00010F0150047004700470084004700470001
:1043C00047003B01470047004700BB00470047004C
:1043D0004700F2004700470047004D0018688A4C2C
:1043E000056A8A4E25F00205B04242EA0502056AD6
:1043F00025F0010505624768856904EA050444F073
:10440000600407D0824DA84204D005F57055A8423B
:1044100040F04D8122F0080247F440774CEA020256
:1044200022F004024760846141630262826942F0C3
:1044300008028261826922F00402826182698261DB
:10444000002283F83C20F0BD9446A0E718686F4E28
:10445000046AB04224F4001444EA0252046A24F4C8
:10446000801404626B4C4568476D04EA070444F409
:10447000C0440ED006F58066B0420AD0664F06F5FD
:104480008046B04218BFB84203D006F58066B042FD
:1044900001D145F4802545604465C1650262426DE5
:1044A00042F400624265426D22F480624265426DD0
:1044B0004265002283F83C20C5E71868574C056A1E
:1044C000524E25F02005B04245EA0215026A22F05C
:1044D000100202624768826904EA020444F4C0449C
:1044E00000F0DE804A4A904200F0DA804A4E4C4AA0
:1044F000904218BFB04203D002F58062904201D1D1
:1045000047F440674760846181630562826942F4D1
:1045100000628261826922F48062826182698261C2
:10452000002283F83C208EE71868384E046AB042B7
:1045300024F4005444EA0232046A24F480540462ED
:10454000364C4568C76904EA070444F4C0440ED0F9
:1045500006F58066B0420AD02F4F06F58046B0427D
:1045600018BFB84203D006F58066B04201D145F4C9
:1045700080454560C46101640262C26942F4006220
:10458000C261C26922F48062C261C269C261002252
:1045900083F83C2057E718681C4E046AB04224F4A4
:1045A000003444EA0242046A24F4803404621D4C5C
:1045B0004568476D04EA070444F060040ED006F530
:1045C0008066B0420AD0144F06F58046B04218BF4C
:1045D000B84203D006F58066B04201D145F480357B
:1045E0004560446581650262426D42F008024265A1
:1045F000426D22F004024265426D4265002283F85A
:104600003C2020E7086C0C088CFFFEFF00000140F6
:1046100000040140FF8FFFFE00400140FF8CFFFEC1
:10462000004401408FFFFEFF1868264C056A264EA5
:1046300025F4007EB0424EEA0225026A22F480721E
:1046400002624768C26904EA020444F0600420D0B0
:104650001E4A90421DD01E4E1E4A904218BFB042C4
:1046600003D002F58062904201D147F44057476081
:10467000C461C1630562C26942F00802C261C269D5
:1046800022F00402C261C269C261002283F83C20A8
:10469000D9E625F4006E4EEA0C2E2EF48065E4E790
:1046A00025F0800545EA0C1525F0400528E705F5BD
:1046B0008065A8423FF4AEAE05F58065A8427FF460
:1046C000B1AEA7E68CFFFEFF0000014000040140F0
:1046D000004001400044014042685379032B0FD849
:1046E000DFE803F00B0805021068403070471068DF
:1046F0003C3070471068383070471068343070476D
:1047000000207047D0E90002064B517992790B44A2
:10471000406893F8C810530701D57BF099BA7BF035
:1047200013BB00BF086C0C08F0B54468374A246915
:10473000C368C4F303245B6852F82460EFF3118468
:10474000102585F312884568314F95F805E0D0F8BB
:104750000CC002EB4E02D5F800E0158CDEF80C2000
:1047600005F4F05522EA0502CEF80C2017F806E011
:10477000DCF8102053F80E501F2A25F0010543F8ED
:104780000E5039D9203A2025DCF804C005FA02F28F
:10479000CCF80C20E2B282F31188BA5DDFF874C065
:1047A00003EB020E46684569DEF8044004EA0C0C8F
:1047B0004CEA0101CEF804107179032924D8DFE80E
:1047C00001F01815120231684031CEF80C50012466
:1047D000CEF80810995841F010019950995821438A
:1047E00099500474F0BD31683C31EEE731683831DE
:1047F000EBE731683431E8E72025DCF804C005FA3E
:1048000002F2CCF80820C5E70021DEE7086C0C08AE
:10481000786D0C080000FFFF03681A7E012A2ED075
:10482000002293F83010012909D093F8481001298B
:104830000ED093F8601001291BD02ABB70470221CB
:1048400042F4806283F8301093F84810012904D1B3
:10485000022142F4006283F8481093F860100129A5
:1048600007D01B6800211B685962D9680A43DA60C7
:104870007047022142F4805283F86010F1E7022170
:104880004FF400721976CCE74FF40072E9E700BFED
:1048900008B5204B98420ED003F5806398420AD0A9
:1048A0001D4A03F58043984218BF904203D003F598
:1048B000806398421BD1FDF745FA1849184BCA6925
:1048C000C969C2F30222C1F302211A4492F83020CE
:1048D00002F01F02D040114A1269C2F3C03241EA0D
:1048E000C202134493F8CC3003FB00F008BDFDF77F
:1048F00029FA0A490A4BCA69C969C2F3021CC1F301
:10490000021103EB0C0292F8302002F01F02D0409B
:10491000E1E700BF000001400040014000440258B0
:10492000086C0C0870B50E4605EE102AD0E900316F
:10493000013E1A680868B6B25C681568FFF7A8FF00
:1049400007EE900AB8EE455A9FED5D7AF8EE677A69
:1049500087EE850A30EE070A80F0FEF923680138F9
:10496000AB4280B268D0C4E9005000238022E660E8
:10497000A360A261C4E9043394F83D3003F0FF0260
:10498000002B78D00223211D284684F83D30FDF706
:10499000C1FE4C4A0123B5F1804FA5EB020284F819
:1049A0004830B2FA82F284F83E3084F83F304FEA61
:1049B000521284F8403084F8413084F8423084F850
:1049C000433084F8443084F8453084F8463084F825
:1049D000473084F83D3034D09ABB3B4B9D420CD0DD
:1049E00003F580639D4208D003F580639D4245D066
:1049F00003F578439D4241D070BD94F83C30012BC3
:104A0000FAD00222314B012184F83D20A8680340EE
:104A1000AB6084F83D1084F83D206B68A96823F0F2
:104A2000700321F0800101226B600023A96084F8EB
:104A30003D2084F83C3070BD636883423AD06060AA
:104A400093E794F83C30012BD6D002211F4B002075
:104A500084F83D10A9680B400121AB6084F83D103B
:104A6000022384F83D306B68A9680AB90028D6D0C3
:104A700023F47003D3E784F83C2083E794F83C30B8
:104A8000012BB9D00221114B114884F83D10A968BF
:104A9000281A0B40B0FA80F00121AB6000234009D6
:104AA00084F83D1084F83C300A4B9D42D8D0002851
:104AB000D6D170BDE368B3427FF457AF70BD00BF7D
:104AC0000AD7233C00000140000400408800CEFFCC
:104AD00000040140000C0040024B0348D3F82014AE
:104AE000FCF7A6BC002D002400000140034B4FF052
:104AF0008040D3F82414FCF79BBC00BF002D002499
:104B0000024B0348D3F82814FCF792BC002D002474
:104B100000040040024B0348D3F82C14FCF788BC77
:104B2000002D002400080040024B0348D3F8301445
:104B3000FCF77EBC002D0024000C0040024B034813
:104B4000D3F83C14FCF774BC002D00240004014091
:104B5000024B0348D3F84C14FCF76ABC002D002428
:104B600000180040024B0348D3F85814FCF760BC0F
:104B7000002D002400400140024B0348D3F85C1490
:104B8000FCF756BC002D002400440140024B0348B2
:104B9000D3F86014FCF74CBC002D00240048014001
:104BA00010B5064C0648D4F83C14FCF741FCD4F888
:104BB00050140448BDE81040FCF73ABC002D002416
:104BC00000040140001C004010B5064C0648D4F813
:104BD0003C14FCF72DFCD4F854140448BDE81040F4
:104BE000FCF726BC002D00240004014000200040FA
:104BF000BFF34F8F0549064BCA6802F4E0621343C6
:104C0000CB60BFF34F8F00BFFDE700BF00ED00E0BA
:104C10000400FA050021012008B50EF051FD72B61E
:104C2000FFF7E6FF2DE9F043BFB0BFF35F8FA14C64
:104C30000023626A22F480326262C4F894309DF8E4
:104C400043109DF844C009069DF842200F9841EAA0
:104C50000C7141EAC2419DF8452041EA82419DF82C
:104C6000462041EA42419DF8472041EA02419DF831
:104C7000412041EA02219DF8402041EA4201C4F866
:104C800098300133D4F8A020112B22F00102C4F88F
:104C9000A020C4F89C00C4F8A010F0D10523C4F8EB
:104CA0009430636A43F480336362BFF34F8FBFF382
:104CB0006F8F8148814A8249121A81F0E5FB814B4E
:104CC0005A6D012A00F0DF80D4F8881000227E4B54
:104CD000012041F47001C4F8881018601A61196845
:104CE00041F080011960196801431960196841F4A5
:104CF00080311960196841F4805119609A61DA6154
:104D00001A629A62DA621A635A639A63DA631A64FD
:104D10005A64196821F4802119601A664FF0006303
:104D20006A49C1F80801A3607CF026F9684AD36893
:104D300013F0040FD36840F09480664B0021644A5E
:104D40000591D96A21F00101D962DB6A03F0010300
:104D50000593936943F440439361936903F440439B
:104D60000593059B93699E04FCD54C2200210EA857
:104D7000594C81F02EFD594A42F20303A4F110016F
:104D80001268B3EB124F4FF000024FF0040308BF5C
:104D90000C460892E268A370002A4FD04D4BD96AA6
:104DA00021F00101D962DB6A494903F0010308934C
:104DB0008B6923F4404313438B618B6903F44043B5
:104DC0000893089B424A93699D04FCD53E4B4FF4DF
:104DD000403543480321D3F8E02042F08002C3F875
:104DE000E0200122D3F8E03003F080030793079B13
:104DF00085610D9BCDE9001300237BF06BFF02233F
:104E000001204FF48031A288CDE917330423199390
:104E1000A379CDE90E01E079217A1C900EA81D91AD
:104E2000CDE91A2308220023CDE91E23FBF71AFD42
:104E3000032800F06082002858D0FEE7244A254B62
:104E4000916941F440419161926902F440420892B3
:104E5000DA6A42F00102DA62DB6A03F001030893C6
:104E6000AFE723F007031F4C43F00203D360216830
:104E700005E023685B1AB3F57A7F3FF65EAF5368AF
:104E80009F04F6D559E7104A002017495865D2F813
:104E9000F43043F00203C2F8F430D2F8F43003F0F7
:104EA00002030E930E9B0B6883F308884B689847A8
:104EB000FEE700BF00ED00E000000000A8370000A2
:104EC00084940D08004000580044025800800051AE
:104ED00000480258000400581C0300240010005C25
:104EE000001C0258002D00240098F01F754B1A6812
:104EF00012F00E0F0BD11A6822F00F0242F00202DC
:104F00001A601B6803F00F03022B40F0F6816E4A13
:104F1000936903F070033F2B05D8936923F0700366
:104F200043F040039361684AD36903F070033F2B59
:104F300005D8D36923F0700343F04003D361624A7C
:104F4000D36903F4E063B3F5806F05D2D36923F42A
:104F5000E06343F48063D3615B4A136A03F0700338
:104F60003F2B05D8136A23F0700343F0400313620C
:104F7000554B9A69140705D49A6922F00F0242F042
:104F800008029A61504A936923F47063936113682D
:104F9000980130D5136941F288314C4C23F0070356
:104FA00043F003031361206804E023681B1A8B425B
:104FB00000F2AC81136903F03803182BF5D1936923
:104FC00003F00F03082B05D9936923F00F0343F077
:104FD000080393613B4A136803F00F03022B0BD9BC
:104FE000136823F00F0343F002031360136803F008
:104FF0000F03022B00D0FEE7334A936903F07003DE
:10500000402B05D9936923F0700343F0400393616B
:105010002D4AD36903F07003402B05D9D36923F0DF
:10502000700343F04003D361274AD36903F4E0637C
:10503000B3F5806F05D9D36923F4E06343F480634B
:10504000D361214A136A03F07003402B00F25681AA
:105050001D4EFCF755FE1E4DB269B369C2F3032223
:105060001C4B134493F8303003F01F0320FA03F372
:10507000D5F884002B60FCF7D1FC002840F08D812E
:105080001023159017900EA80E93FBF7EBFB00284A
:1050900040F030813368104A43F080033360D6F823
:1050A000F43043F00203C6F8F430D6F8F43003F0DD
:1050B00002030493049B136A43F001031362074B3A
:1050C000216810E00020005200440258002D002406
:1050D00000000024086C0C0800040058803801000F
:1050E000013B00F0088122689142F9D022682368D0
:1050F0009B1A0A2BFBD900214FF48020A74C4FF4B8
:1051000040130026002730934FF00208CDE90E012E
:105110000EA87AF005FFD4F8EC30A14941F2030261
:1051200043F002030EA8C4F8EC30D4F8EC3003F0DE
:1051300002030393039BD4F8943043F00203C4F8B2
:105140009430D4F8943023F00203C4F894300B6800
:105150009449B2EB134F944B944A28BF0A465A60C5
:105160001A6822F47C5242F400521A601A6842F023
:1051700060021A6003220023CDE92C67CDE90E23DB
:105180007AF0CEFE4FF4E04200230EA8CDE9266768
:1051900000270326CDE90E233A977AF0C1FE1822A4
:1051A00000230EA82F973497CDE90E237AF0B8FE8E
:1051B0004FF4803200230EA81797CDE90E23052265
:1051C0004FF4FA73CDE91023042314934FF4803382
:1051D000CDE915772293CDE912867AF0A1FED4F8B5
:1051E000E03042464FF4807143F001037048C4F848
:1051F000E030D4F8E03003F001030993099B3B460B
:10520000CDE900677BF066FD23694246694823F0DB
:10521000FE7343F088732361D4F8E03043F0040355
:10522000C4F8E030D4F8E03003F0040306933B46C2
:1052300006994FF40071CDE900677BF04BFD2369BF
:1052400023F07E4343F0FC432361FCF759FD2860C3
:10525000BFF35F8F584C3E46584D4FF00108636ACC
:1052600023F480336362C4F8947028E0002A4CD0A1
:105270002F686B7A103515F8061C1B0643EA01737C
:1052800043EA420315F8052C43EA824315F8042C3F
:1052900043EA424315F8032CC4F89860013643EA08
:1052A0000243D4F8A020032E43F0010322F00102B0
:1052B000C4F8A020C4F89C70C4F8A03027D06B6854
:1052C0002A7A002BD2D02F68002AD2D127F01F02D1
:1052D000A3EB0209B9F1200F38BF4FF0200948466F
:1052E00081F0A4F8421E08FA02F1894508BF02467F
:1052F000D2B2BEE7FEE7FFF78DFC7CE6136A23F02F
:10530000700343F040031362A2E6FEE773E6052351
:10531000C4F89430636A43F480336362BFF34F8F01
:10532000BFF36F8FBFF34F8FBFF36F8F0022C4F8AF
:105330005022BFF34F8FBFF36F8F636943F4003385
:105340006361BFF34F8FBFF36F8FC4F88420BFF347
:105350004F8FD4F8805043F6E0761749C5F34E34AA
:10536000C5F3C905640104EA06002B4640EA8372CE
:10537000013BC1F86022F9D2203C14F1200FF2D198
:10538000BFF34F8F4B6943F480334B61BFF34F8FB3
:10539000BFF36F8F3FB0BDE8F0832CE600440258A6
:1053A0000010005C7FBB2200008400407FBB2230E5
:1053B000000002580008025800ED00E02C03002411
:1053C0002DE9F843374E984606EB8003D3F8DC40CE
:1053D000002C65D004F1D203FC360546B4F8D202A5
:1053E000A36104F5E97366601746E3614FF48073C7
:1053F000261DE160C4E904332368C4F8CC30A363FC
:1054000000284AD194F8D1000DF070F918F0080F77
:1054100094F8D09034D1BA0723D4FB0711D40521D6
:1054200094F8D60271F0FCFF94F8D63201221E499E
:1054300003F01F005B09824041F823203046BDE89D
:10544000F883013548460DF051F9EDB218B140F23C
:1054500006630572C38094F8D42202210DF024F96A
:10546000DDE76B1CDBB218B1037240F20653C38058
:1054700094F8D52202210DF017F9FB07CFD5E0E70C
:105480000135EDB218B140F206730572C38094F88D
:10549000D52202210DF008F9C1E771F055FAB1E704
:1054A0002646CBE7086C0C0800E100E00148FDF758
:1054B000DDB900BF600300240148FDF7D7B900BF84
:1054C000380600240148FDF7D1B900BF10090024B7
:1054D0000148FDF7CBB900BFE80B00240148FDF7F8
:1054E000C5B900BFC00E00240148FDF7BFB900BF19
:1054F000981100240148FDF7B9B900BF70140024C9
:1055000070B52422456B00238168C0F8BC20044696
:105510002A6800F1340622F001022A602B606B60D9
:10552000AB608279C0F8C43080F8B830C0F8BC30C5
:10553000C364C0F8C0304365C0F8A030C0F8A430E0
:105540009302816303F480534179C363130303F42B
:1055500000530364130203F480634364C36D01F0DA
:105560000200C90745D400287ED1A06412F00802C9
:1055700054D0D4F8BC20002A00F08A802422C4F839
:10558000BC202A6822F001022A60002B7CD1304620
:10559000FCF74AFD012812D06B68304623F4904393
:1055A0006B60AB6823F02203AB60AB6843F0080389
:1055B000AB602B6843F001032B607AF0E9FA627963
:1055C000D6070DD5D4F8C830196841F48071196038
:1055D000996841F001019960196841F02001196052
:1055E000950705D5D4F8C820136843F080031360ED
:1055F00070BD0421A16470B30C21D007A164B5D59E
:105600004FF4803143F00203616643F001034FF42D
:105610000031E365216612F00802AAD1D4F8BC106B
:1056200009B194F8B82084F8B8202422C4F8BC202A
:105630002A6822F001022A6013BB3046FCF7F4FC12
:105640000128BCD06B68304623F490436B60AB6894
